:100000000C9434000C9446000C9446000C9446006A
:100010000C9446000C9446000C9446000C94460048
:100020000C9446000C9446000C9446000C94460038
:100030000C9446000C9446000C9446000C94460028
:100040000C9446000C9446000C944A010C947201E6
:100050000C9446000C9446000C9446000C94460008
:100060000C9446000C94460011241FBECFEFD8E03C
:10007000DEBFCDBF11E0A0E0B1E001C01D92A73707
:10008000B107E1F70E94E3010C9401020C94000017
:10009000FC01862F41110DC0908121E030E0062E39
:1000A00001C0220F0A94EAF7209529233197208373
:1000B0000FC0413069F4908121E030E001C0220F8F
:1000C0006A95EAF7922BDF0111979C93BF0108957F
:1000D0000895FB01908121E030E001C0220F8A9554
:1000E000EAF7922BDB0111979C938081442319F04E
:1000F000822B808308952095282320830895FB0177
:10010000908121E030E002C0220F331F8A95E2F790
:10011000822F80958923DB0111978C93408150E0D9
:100120004223532381E0452B09F480E00895CF92C8
:10013000DF92EF926B01E82E0E947F00882311F07E
:1001400040E001C041E08E2DB601EF90DF90CF90EE
:100150000C946900FC01118210820895FC0117AA19
:1001600010AE11AE089521E0FC0187A9811120E0B5
:10017000822F089521E0FC0187A9863309F020E051
:10018000822F0895FC012FB7F89497A9963361F058
:1001900081ADDF01A80FB11D6C939F5F97AB8F5F9F
:1001A00081AF873309F411AE2FBF0895FC012FB73B
:1001B000F89497A9963341F080AD8F5F80AF91504E
:1001C00097AB873309F410AE2FBF0895FC0127A920
:1001D000211102C080E00895FC0120ADE20FF11D65
:1001E000808108958AE391E00E94AE0080E091E072
:1001F0000E94AE001092C50087E68093C40080E2A2
:100200008093C00088E98093C10086E08093C2009B
:10021000789408958091C00085FFFCCF8091C10043
:1002200087768093C100F8940895CF9380E091E0A1
:100230000E94B3008111FACF80E091E00E94E600B5
:10024000C82F80E091E00E94D6008C2FCF910895B6
:10025000CF93DF931F92CDB7DEB7682F8AE391E08B
:1002600069830E94BA0069818111F8CF8AE391E025
:100270000E94C2008091C10080628093C1000F90F3
:10028000DF91CF91089580E091E00E94B30091E06A
:10029000892708951F920F920FB60F9211242F9362
:1002A0003F934F935F936F937F938F939F93AF93FE
:1002B000BF93EF93FF936091C60080E091E00E94AE
:1002C000C200FF91EF91BF91AF919F918F917F916C
:1002D0006F915F914F913F912F910F900FBE0F90B3
:1002E0001F9018951F920F920FB60F9211242F9303
:1002F0003F934F935F936F937F938F939F93AF93AE
:10030000BF93EF93FF938AE391E00E94B3008111C2
:100310000BC08AE391E00E94E6008093C6008AE366
:1003200091E00E94D60005C08091C1008F7D80932E
:10033000C100FF91EF91BF91AF919F918F917F91FC
:100340006F915F914F913F912F910F900FBE0F9042
:100350001F901895CF930E944301882391F10E942A
:1003600015018F3441F46091740170917501809191
:10037000760141E023C0863441F4609174017091AC
:1003800075018091760140E019C08334D1F4609109
:10039000740170917501809176010E947F00C82FD1
:1003A000882311F081E301C080E30E94280160915D
:1003B000740170917501809176014C2FCF910C944E
:1003C0006900CF9108950E94F20041E065E085E266
:1003D00090E00E94480060937401709375018093CF
:1003E00076010E9443018823E1F3609174017091CA
:1003F00075018091760140E00E9469000E94AA0187
:06040000FDCFF894FFCFD0
:00000001FF
