:100000000C9434000C9446000C9446000C9446006A
:100010000C9411030C947E030C9446000C9446003F
:100020000C9446000C9446000C9446000C94A100DD
:100030000C9446000C9446000C9446000C94460028
:100040000C9446000C9446000C9497010C94BF014C
:100050000C9446000C9446000C9446000C94460008
:100060000C9446000C94460011241FBECFEFD8E03C
:10007000DEBFCDBF12E0A0E0B1E001C01D92A9300B
:10008000B107E1F70E94CE030C949A040C9400008F
:10009000E1E0F1E020E030E0722F908191111FC08B
:1000A000909164019F5F90936401A5E0A29FF0018D
:1000B000A39FF00D1124E050FF4F60836183828382
:1000C00054834383992349F0109285001092840051
:1000D00090916F00926090936F00872F08952F5F2B
:1000E0003F4F359624313105B9F68FEF0895AB01B6
:1000F000682F81E00C944800AB01682F80E00C94DD
:10010000480084313CF495E08902F0011124E0506C
:10011000FF4F11820895E1E0F1E01082359681E011
:10012000E536F807D1F70895109280008BE08093B0
:10013000810089E08093890083EC809388000C948F
:100140008B001F920F920FB60F921124EF92FF9225
:100150000F931F932F933F934F935F936F937F93CF
:100160008F939F93AF93BF93CF93DF93EF93FF93BF
:10017000C1E0D1E000E011E082E0E82E81E0F82E5D
:1001800088818823B9F0F8018081815080838111B2
:1001900011C0EA81FB810995F7018081813011F45A
:1001A000188208C0882319F08150F7018083888164
:1001B000F801808325960B5F1F4FF5E0EF0EF11CD1
:1001C00081E0C536D807E1F6FF91EF91DF91CF913D
:1001D000BF91AF919F918F917F916F915F914F915F
:1001E0003F912F911F910F91FF90EF900F900FBEB5
:1001F0000F901F901895FC0117AA10AE11AE08952C
:1002000021E0FC0187A9811120E0822F089521E0DF
:10021000FC0187A9863309F020E0822F0895FC01B4
:100220002FB7F89497A9963361F081ADDF01A80F3D
:10023000B11D6C939F5F97AB8F5F81AF873309F4DC
:1002400011AE2FBF0895FC012FB7F89497A99633EC
:1002500041F080AD8F5F80AF915097AB873309F449
:1002600010AE2FBF0895FC0127A9211102C080E024
:100270000895FC0120ADE20FF11D808108958FE902
:1002800091E00E94FB0085E691E00E94FB00109245
:10029000C50087E68093C40080E28093C00088E9AF
:1002A0008093C10086E08093C20078940895809185
:1002B000C00085FFFCCF8091C10087768093C1008C
:1002C000F8940895CF9385E691E00E940001811192
:1002D000FACF85E691E00E943301C82F85E691E0D0
:1002E0000E9423018C2FCF910895CF93DF931F920B
:1002F000CDB7DEB7682F8FE991E069830E940701CF
:1003000069818111F8CF8FE991E00E940F018091FE
:10031000C10080628093C1000F90DF91CF9108955A
:1003200085E691E00E94000191E0892708951F92DF
:100330000F920FB60F9211242F933F934F935F9319
:100340006F937F938F939F93AF93BF93EF93FF939D
:100350006091C60085E691E00E940F01FF91EF9148
:10036000BF91AF919F918F917F916F915F914F91CD
:100370003F912F910F900FBE0F901F9018951F92D5
:100380000F920FB60F9211242F933F934F935F93C9
:100390006F937F938F939F93AF93BF93EF93FF934D
:1003A0008FE991E00E94000181110BC08FE991E07B
:1003B0000E9433018093C6008FE991E00E942301DF
:1003C00005C08091C1008F7D8093C100FF91EF91A6
:1003D000BF91AF919F918F917F916F915F914F915D
:1003E0003F912F910F900FBE0F901F901895FC0119
:1003F000862F41110DC0908121E030E0062E01C012
:10040000220F0A94EAF720952923319720830FC001
:10041000413069F4908121E030E001C0220F6A95FB
:10042000EAF7922BDF0111979C93BF01089508957D
:10043000FB01908121E030E001C0220F8A95EAF7AC
:10044000922BDB0111979C938081442319F0822B1E
:10045000808308952095282320830895FB019081AF
:1004600021E030E002C0220F331F8A95E2F7892F86
:1004700090E02823392381E0232B09F480E00895BC
:10048000CF92DF92EF926B01E82E0E942E0288231A
:1004900011F040E001C041E08E2DB601EF90DF90F9
:1004A000CF900C941802FC01118210820895CF9312
:1004B0000E949001882309F4B2C00E946201C82FF3
:1004C0000E946201C43409F47AC0C53421F0C134F9
:1004D00009F0A5C03BC08233F9F058F48033A9F08D
:1004E000813391F5609103027091040280910502BD
:1004F00019C0843311F1D0F0853331F56091F101E9
:100500007091F2018091F3010DC06091DF01709153
:10051000E0018091E10106C06091E5017091E60182
:100520008091E70141E0CF910C9418026091F701AE
:100530007091F8018091F901F5CF6091FD01709102
:10054000FE018091FF01EECF85E466C0823309F1A0
:1005500060F48033B9F0813309F05DC0609103022B
:10056000709104028091050228C0843301F1C0F02B
:10057000853309F050C06091F1017091F2018091D2
:10058000F3011BC06091DF017091E0018091E101F6
:1005900014C06091E5017091E6018091E7010DC002
:1005A0006091F7017091F8018091F90106C06091A6
:1005B000FD017091FE018091FF0140E0B4CF8233D4
:1005C000C1F048F4803391F0813329F58BB18F71FC
:1005D0008BB95C9A24C08433B9F080F08533D9F4A8
:1005E0008BB18F758BB98BB1806513C08BB18F7058
:1005F00010C08BB18F788BB95F9A11C08BB18F7996
:100600008BB98BB1806905C08BB18F748BB95E9A41
:1006100006C08BB904C081E4CF910C947501CF91D1
:1006200008951F920F920FB60F9211242F933F93AC
:100630004F935F936F937F938F939F93AF93BF93EA
:10064000EF93FF93309909C082E40E94750180E323
:100650000E9475018DE00E947501319909C082E404
:100660000E94750181E30E9475018DE00E94750171
:10067000329909C082E40E94750182E30E947501EB
:100680008DE00E947501339909C082E40E947501D2
:1006900083E30E9475018DE00E947501349909C0C1
:1006A00082E40E94750184E30E9475018DE00E943E
:1006B0007501359909C082E40E94750185E30E94A5
:1006C00075018DE00E9475012FEF81EE94E02150BD
:1006D00080409040E1F700C00000FF91EF91BF9192
:1006E000AF919F918F917F916F915F914F913F91CA
:1006F0002F910F900FBE0F901F9018951F920F9281
:100700000FB60F9211242F933F934F935F936F93E4
:100710007F938F939F93AF93BF93EF93FF934A99E8
:100720000AC084E50E94750180E50E9475018DE094
:100730000E94750102C04A9B09C02FEF81EE94E030
:10074000215080409040E1F700C000004B990AC062
:100750008FE40E94750180E50E9475018DE00E9482
:10076000750102C04B9B09C02FEF81EE94E0215030
:1007700080409040E1F700C00000FF91EF91BF91F1
:10078000AF919F918F917F916F915F914F913F9129
:100790002F910F900FBE0F901F9018950E949400FC
:1007A0000E943F0180EF8AB986E0809368008FE362
:1007B00080936C008CE080936D00789441E065E05C
:1007C00085E290E00E94F7016093DF017093E00101
:1007D0008093E10140E060E088E290E00E94F70150
:1007E0006093E2017093E3018093E401409A41E059
:1007F00064E085E290E00E94F70160930302709349
:1008000004028093050240E061E088E290E00E94EB
:10081000F701609306027093070280930802419AE1
:1008200041E063E085E290E00E94F7016093E5011A
:100830007093E6018093E70140E062E088E290E097
:100840000E94F7016093E8017093E9018093EA0147
:10085000429A41E062E085E290E00E94F7016093F5
:10086000F7017093F8018093F90140E063E088E2BA
:1008700090E00E94F7016093FA017093FB0180936E
:10088000FC01439A41E061E085E290E00E94F701BB
:100890006093FD017093FE018093FF0140E064E0EE
:1008A00088E290E00E94F7016093000270930102D9
:1008B00080930202449A41E060E085E290E00E9469
:1008C000F7016093F1017093F2018093F30140E02E
:1008D00065E088E290E00E94F7016093F401709374
:1008E000F5018093F601459A40E062E08BE290E0EA
:1008F0000E94F7016093DC017093DD018093DE01BB
:1009000040E063E08BE290E00E94F7016093EE012B
:100910007093EF018093F0015A9A5B9A8BB18F70BC
:100920008BB980EF8AB90E9490018823E1F30E947D
:080930005702FDCFF894FFCF40
:00000001FF
